{
  "_format": "hh-sol-artifact-1",
  "contractName": "Lottery",
  "sourceName": "contracts/Lottery.sol",
  "abi": [
    {
      "inputs": [],
      "stateMutability": "nonpayable",
      "type": "constructor"
    },
    {
      "inputs": [],
      "name": "enter",
      "outputs": [],
      "stateMutability": "payable",
      "type": "function"
    },
    {
      "inputs": [],
      "name": "getLootteryId",
      "outputs": [
        {
          "internalType": "uint256",
          "name": "",
          "type": "uint256"
        }
      ],
      "stateMutability": "view",
      "type": "function"
    },
    {
      "inputs": [],
      "name": "getWinner",
      "outputs": [
        {
          "internalType": "address[]",
          "name": "",
          "type": "address[]"
        }
      ],
      "stateMutability": "view",
      "type": "function"
    },
    {
      "inputs": [],
      "name": "getbalance",
      "outputs": [
        {
          "internalType": "uint256",
          "name": "",
          "type": "uint256"
        }
      ],
      "stateMutability": "view",
      "type": "function"
    },
    {
      "inputs": [],
      "name": "getplayer",
      "outputs": [
        {
          "internalType": "address payable[]",
          "name": "",
          "type": "address[]"
        }
      ],
      "stateMutability": "view",
      "type": "function"
    },
    {
      "inputs": [],
      "name": "lotteryId",
      "outputs": [
        {
          "internalType": "uint256",
          "name": "",
          "type": "uint256"
        }
      ],
      "stateMutability": "view",
      "type": "function"
    },
    {
      "inputs": [],
      "name": "owner",
      "outputs": [
        {
          "internalType": "address",
          "name": "",
          "type": "address"
        }
      ],
      "stateMutability": "view",
      "type": "function"
    },
    {
      "inputs": [],
      "name": "pickWinner",
      "outputs": [],
      "stateMutability": "nonpayable",
      "type": "function"
    },
    {
      "inputs": [
        {
          "internalType": "uint256",
          "name": "",
          "type": "uint256"
        }
      ],
      "name": "players",
      "outputs": [
        {
          "internalType": "address payable",
          "name": "",
          "type": "address"
        }
      ],
      "stateMutability": "view",
      "type": "function"
    },
    {
      "inputs": [],
      "name": "randomNumber",
      "outputs": [
        {
          "internalType": "uint256",
          "name": "",
          "type": "uint256"
        }
      ],
      "stateMutability": "view",
      "type": "function"
    },
    {
      "inputs": [
        {
          "internalType": "uint256",
          "name": "",
          "type": "uint256"
        }
      ],
      "name": "winner",
      "outputs": [
        {
          "internalType": "address",
          "name": "",
          "type": "address"
        }
      ],
      "stateMutability": "view",
      "type": "function"
    }
  ],
  "bytecode": "0x608060405234801561001057600080fd5b50336000806101000a81548173ffffffffffffffffffffffffffffffffffffffff021916908373ffffffffffffffffffffffffffffffffffffffff1602179055506000600381905550610cb3806100686000396000f3fe60806040526004361061009c5760003560e01c80638e7ea5b2116100645780638e7ea5b214610176578063ccbac9f5146101a1578063e1839078146101cc578063e580f47b146101f7578063e97dcb6214610222578063f71d96cb1461022c5761009c565b80631cbeae5e146100a157806328ed0fac146100de5780634d9b3d5d146101095780635d495aea146101345780638da5cb5b1461014b575b600080fd5b3480156100ad57600080fd5b506100c860048036038101906100c39190610804565b610269565b6040516100d59190610872565b60405180910390f35b3480156100ea57600080fd5b506100f36102a8565b604051610100919061089c565b60405180910390f35b34801561011557600080fd5b5061011e6102b2565b60405161012b919061089c565b60405180910390f35b34801561014057600080fd5b506101496102ba565b005b34801561015757600080fd5b506101606104cf565b60405161016d9190610872565b60405180910390f35b34801561018257600080fd5b5061018b6104f3565b6040516101989190610975565b60405180910390f35b3480156101ad57600080fd5b506101b6610581565b6040516101c3919061089c565b60405180910390f35b3480156101d857600080fd5b506101e16105d5565b6040516101ee9190610a67565b60405180910390f35b34801561020357600080fd5b5061020c610663565b604051610219919061089c565b60405180910390f35b61022a610669565b005b34801561023857600080fd5b50610253600480360381019061024e9190610804565b6106e3565b6040516102609190610a98565b60405180910390f35b6002818154811061027957600080fd5b906000526020600020016000915054906101000a900473ffffffffffffffffffffffffffffffffffffffff1681565b6000600354905090565b600047905090565b60008054906101000a900473ffffffffffffffffffffffffffffffffffffffff1673ffffffffffffffffffffffffffffffffffffffff163373ffffffffffffffffffffffffffffffffffffffff161461031257600080fd5b6000600180549050610322610581565b61032c9190610ae2565b90506001818154811061034257610341610b13565b5b9060005260206000200160009054906101000a900473ffffffffffffffffffffffffffffffffffffffff1673ffffffffffffffffffffffffffffffffffffffff166108fc479081150290604051600060405180830381858888f193505050501580156103b2573d6000803e3d6000fd5b506002600182815481106103c9576103c8610b13565b5b9060005260206000200160009054906101000a900473ffffffffffffffffffffffffffffffffffffffff169080600181540180825580915050600190039060005260206000200160009091909190916101000a81548173ffffffffffffffffffffffffffffffffffffffff021916908373ffffffffffffffffffffffffffffffffffffffff1602179055506003600081548092919061046790610b71565b9190505550600067ffffffffffffffff81111561048757610486610bb9565b5b6040519080825280602002602001820160405280156104b55781602001602082028036833780820191505090505b50600190805190602001906104cb929190610722565b5050565b60008054906101000a900473ffffffffffffffffffffffffffffffffffffffff1681565b6060600280548060200260200160405190810160405280929190818152602001828054801561057757602002820191906000526020600020905b8160009054906101000a900473ffffffffffffffffffffffffffffffffffffffff1673ffffffffffffffffffffffffffffffffffffffff168152602001906001019080831161052d575b5050505050905090565b60008060009054906101000a900473ffffffffffffffffffffffffffffffffffffffff16426040516020016105b7929190610c51565b6040516020818303038152906040528051906020012060001c905090565b6060600180548060200260200160405190810160405280929190818152602001828054801561065957602002820191906000526020600020905b8160009054906101000a900473ffffffffffffffffffffffffffffffffffffffff1673ffffffffffffffffffffffffffffffffffffffff168152602001906001019080831161060f575b5050505050905090565b60035481565b67016345785d8a000034101561067e57600080fd5b6001339080600181540180825580915050600190039060005260206000200160009091909190916101000a81548173ffffffffffffffffffffffffffffffffffffffff021916908373ffffffffffffffffffffffffffffffffffffffff160217905550565b600181815481106106f357600080fd5b906000526020600020016000915054906101000a900473ffffffffffffffffffffffffffffffffffffffff1681565b82805482825590600052602060002090810192821561079b579160200282015b8281111561079a5782518260006101000a81548173ffffffffffffffffffffffffffffffffffffffff021916908373ffffffffffffffffffffffffffffffffffffffff16021790555091602001919060010190610742565b5b5090506107a891906107ac565b5090565b5b808211156107c55760008160009055506001016107ad565b5090565b600080fd5b6000819050919050565b6107e1816107ce565b81146107ec57600080fd5b50565b6000813590506107fe816107d8565b92915050565b60006020828403121561081a576108196107c9565b5b6000610828848285016107ef565b91505092915050565b600073ffffffffffffffffffffffffffffffffffffffff82169050919050565b600061085c82610831565b9050919050565b61086c81610851565b82525050565b60006020820190506108876000830184610863565b92915050565b610896816107ce565b82525050565b60006020820190506108b1600083018461088d565b92915050565b600081519050919050565b600082825260208201905092915050565b6000819050602082019050919050565b6108ec81610851565b82525050565b60006108fe83836108e3565b60208301905092915050565b6000602082019050919050565b6000610922826108b7565b61092c81856108c2565b9350610937836108d3565b8060005b8381101561096857815161094f88826108f2565b975061095a8361090a565b92505060018101905061093b565b5085935050505092915050565b6000602082019050818103600083015261098f8184610917565b905092915050565b600081519050919050565b600082825260208201905092915050565b6000819050602082019050919050565b60006109ce82610831565b9050919050565b6109de816109c3565b82525050565b60006109f083836109d5565b60208301905092915050565b6000602082019050919050565b6000610a1482610997565b610a1e81856109a2565b9350610a29836109b3565b8060005b83811015610a5a578151610a4188826109e4565b9750610a4c836109fc565b925050600181019050610a2d565b5085935050505092915050565b60006020820190508181036000830152610a818184610a09565b905092915050565b610a92816109c3565b82525050565b6000602082019050610aad6000830184610a89565b92915050565b7f4e487b7100000000000000000000000000000000000000000000000000000000600052601260045260246000fd5b6000610aed826107ce565b9150610af8836107ce565b925082610b0857610b07610ab3565b5b828206905092915050565b7f4e487b7100000000000000000000000000000000000000000000000000000000600052603260045260246000fd5b7f4e487b7100000000000000000000000000000000000000000000000000000000600052601160045260246000fd5b6000610b7c826107ce565b91507fffffffffffffffffffffffffffffffffffffffffffffffffffffffffffffffff8203610bae57610bad610b42565b5b600182019050919050565b7f4e487b7100000000000000000000000000000000000000000000000000000000600052604160045260246000fd5b60008160601b9050919050565b6000610c0082610be8565b9050919050565b6000610c1282610bf5565b9050919050565b610c2a610c2582610851565b610c07565b82525050565b6000819050919050565b610c4b610c46826107ce565b610c30565b82525050565b6000610c5d8285610c19565b601482019150610c6d8284610c3a565b602082019150819050939250505056fea264697066735822122025fa4e69ac4ff2c5a27f79aba833a3cfea39cf4e19ac667ad1b1b2c495a24a9464736f6c634300080f0033",
  "linkReferences": {},
  "deployedLinkReferences": {}
}